{
  "contractName": "Faucet",
  "abi": [
    {
      "anonymous": false,
      "inputs": [
        {
          "indexed": true,
          "internalType": "address",
          "name": "from",
          "type": "address"
        },
        {
          "indexed": false,
          "internalType": "uint256",
          "name": "amount",
          "type": "uint256"
        }
      ],
      "name": "Deposit",
      "type": "event"
    },
    {
      "anonymous": false,
      "inputs": [
        {
          "indexed": true,
          "internalType": "address",
          "name": "to",
          "type": "address"
        },
        {
          "indexed": false,
          "internalType": "uint256",
          "name": "amount",
          "type": "uint256"
        }
      ],
      "name": "Withdrawal",
      "type": "event"
    },
    {
      "inputs": [],
      "name": "destroy",
      "outputs": [],
      "stateMutability": "nonpayable",
      "type": "function"
    },
    {
      "stateMutability": "payable",
      "type": "receive"
    },
    {
      "inputs": [
        {
          "internalType": "uint256",
          "name": "withdraw_amount",
          "type": "uint256"
        }
      ],
      "name": "withdraw",
      "outputs": [],
      "stateMutability": "nonpayable",
      "type": "function"
    }
  ],
  "bytecode": "0x608060405230600160006101000a81548173ffffffffffffffffffffffffffffffffffffffff021916908373ffffffffffffffffffffffffffffffffffffffff16021790555034801561005157600080fd5b50336000806101000a81548173ffffffffffffffffffffffffffffffffffffffff021916908373ffffffffffffffffffffffffffffffffffffffff1602179055506103cd806100a16000396000f3fe60806040526004361061004a576000357c0100000000000000000000000000000000000000000000000000000000900480632e1a7d4d146100a457806383197ef0146100cd5761009f565b3661009f573373ffffffffffffffffffffffffffffffffffffffff167fe1fffcc4923d04b559f4d29a8bfc6cda04eb5b0d3c460751c2402c5c5cc9109c34604051610095919061034a565b60405180910390a2005b600080fd5b3480156100b057600080fd5b506100cb60048036038101906100c691906102b2565b6100e4565b005b3480156100d957600080fd5b506100e261020c565b005b662386f26fc100008111156100f857600080fd5b80600160009054906101000a900473ffffffffffffffffffffffffffffffffffffffff1673ffffffffffffffffffffffffffffffffffffffff16311015610174576040517f08c379a000000000000000000000000000000000000000000000000000000000815260040161016b9061032a565b60405180910390fd5b3373ffffffffffffffffffffffffffffffffffffffff166108fc829081150290604051600060405180830381858888f193505050501580156101ba573d6000803e3d6000fd5b503373ffffffffffffffffffffffffffffffffffffffff167f7fcf532c15f0a6db0bd6d0e038bea71d30d808c7d98cb3bf7268a95bf5081b6582604051610201919061034a565b60405180910390a250565b60008054906101000a900473ffffffffffffffffffffffffffffffffffffffff1673ffffffffffffffffffffffffffffffffffffffff163373ffffffffffffffffffffffffffffffffffffffff161461026457600080fd5b60008054906101000a900473ffffffffffffffffffffffffffffffffffffffff1673ffffffffffffffffffffffffffffffffffffffff16ff5b6000813590506102ac81610380565b92915050565b6000602082840312156102c457600080fd5b60006102d28482850161029d565b91505092915050565b60006102e8601e83610365565b91507f496e73756666696369656e742062616c616e636520696e2066617563657400006000830152602082019050919050565b61032481610376565b82525050565b60006020820190508181036000830152610343816102db565b9050919050565b600060208201905061035f600083018461031b565b92915050565b600082825260208201905092915050565b6000819050919050565b61038981610376565b811461039457600080fd5b5056fea264697066735822122060d4dd0afe7be3c6a09eeca3337e88f749771b5a6adde115100ed12ddee1f39c64736f6c63430008000033",
  "immutableReferences": {},
  "source": "// SPDX-License-Identifier: GPL-3.0\r\n\r\npragma solidity >=0.7.0 <0.9.0;\r\n\r\n//Make an 'owned' parent with constructor + modifier\r\ncontract owned {\r\n  address payable owner;\r\n\r\n  constructor() {\r\n    owner = payable(msg.sender);\r\n  }\r\n\r\n  modifier onlyOwner {\r\n    require(payable(msg.sender) == owner);\r\n    _;\r\n  }\r\n}\r\n\r\n//Make a 'mortal' child with destructor\r\ncontract mortal is owned {\r\n  function destroy() public onlyOwner{\r\n    selfdestruct(owner);\r\n  }\r\n}\r\n\r\n//Use the 'mortal' as parent in Faucet for withdraw + receive function\r\ncontract Faucet is mortal {\r\n  address faucetAddress = address(this);\r\n  event Withdrawal (address indexed to, uint amount);\r\n  event Deposit (address indexed from, uint amount);\r\n\r\n  function withdraw(uint withdraw_amount) public{\r\n    require(withdraw_amount <= 0.01 ether);\r\n    //Optional error handling, requires more gas\r\n    require(faucetAddress.balance >= withdraw_amount,\r\n      \"Insufficient balance in faucet\");\r\n    payable(msg.sender).transfer(withdraw_amount);\r\n    emit Withdrawal(msg.sender, withdraw_amount);\r\n  }\r\n\r\n  receive() external payable{\r\n    emit Deposit(msg.sender, msg.value);\r\n  }\r\n}\r\n",
  "sourcePath": "C:/Users/Pegasus/Solidity_Projects/CreateApp/contracts/Faucet.sol",
  "compiler": {
    "name": "solc",
    "version": "0.8.0+commit.c7dfd78e.Emscripten.clang"
  },
  "schemaVersion": "3.3.4",
  "updatedAt": "2021-03-06T17:24:21.089Z",
  "devdoc": {
    "kind": "dev",
    "methods": {},
    "version": 1
  },
  "userdoc": {
    "kind": "user",
    "methods": {},
    "version": 1
  }
}