{
  "contractName": "Faucet2",
  "abi": [
    {
      "inputs": [],
      "stateMutability": "nonpayable",
      "type": "constructor"
    },
    {
      "stateMutability": "payable",
      "type": "receive"
    },
    {
      "inputs": [
        {
          "internalType": "uint256",
          "name": "withdraw_amount",
          "type": "uint256"
        }
      ],
      "name": "withdraw",
      "outputs": [],
      "stateMutability": "nonpayable",
      "type": "function"
    },
    {
      "inputs": [],
      "name": "destroy",
      "outputs": [],
      "stateMutability": "nonpayable",
      "type": "function"
    }
  ],
  "bytecode": "0x608060405234801561001057600080fd5b50336000806101000a81548173ffffffffffffffffffffffffffffffffffffffff021916908373ffffffffffffffffffffffffffffffffffffffff16021790555061021a806100606000396000f3fe60806040526004361061004a576000357c0100000000000000000000000000000000000000000000000000000000900480632e1a7d4d1461005657806383197ef01461007f57610051565b3661005157005b600080fd5b34801561006257600080fd5b5061007d6004803603810190610078919061019a565b610096565b005b34801561008b57600080fd5b506100946100f4565b005b662386f26fc100008111156100aa57600080fd5b3373ffffffffffffffffffffffffffffffffffffffff166108fc829081150290604051600060405180830381858888f193505050501580156100f0573d6000803e3d6000fd5b5050565b60008054906101000a900473ffffffffffffffffffffffffffffffffffffffff1673ffffffffffffffffffffffffffffffffffffffff163373ffffffffffffffffffffffffffffffffffffffff161461014c57600080fd5b60008054906101000a900473ffffffffffffffffffffffffffffffffffffffff1673ffffffffffffffffffffffffffffffffffffffff16ff5b600081359050610194816101cd565b92915050565b6000602082840312156101ac57600080fd5b60006101ba84828501610185565b91505092915050565b6000819050919050565b6101d6816101c3565b81146101e157600080fd5b5056fea2646970667358221220daef3ed2933621af1148356bfabe4d46748bfdd50512c50adc52840ba9ccec8764736f6c63430008000033",
  "immutableReferences": {},
  "source": "// SPDX-License-Identifier: GPL-3.0\r\n\r\n/* create a withdrawal function inside a contract\r\n  * Limit the withdrawal\r\n  * Send ammount to address\r\n  * Accept incoming ammount\r\n*/\r\n\r\npragma solidity >=0.7.0 <0.9.0;\r\n\r\ncontract Faucet2 {\r\n  // define a payable address variable 'owner'\r\n  address payable owner;\r\n\r\n  constructor () {\r\n    owner = payable(msg.sender);\r\n  }\r\n  // latest solidity version requires address payable to use transfer or send\r\n  function withdraw (uint withdraw_amount) public {\r\n    //event Withdrawal (address indexed to, uint amount);\r\n    //event Deposit (address indexed from, uint amount);\r\n\r\n    require(withdraw_amount <= 0.01 ether);\r\n    payable(msg.sender).transfer(withdraw_amount);\r\n    //emit Withdrawal(msg.sender, withdraw_amount);\r\n  }\r\n\r\n  //receive external funds\r\n  receive() external payable{\r\n    //emit Deposit(msg.sender, msg.value);\r\n  }\r\n\r\n  // modifier wraps around the function to be modified\r\n  modifier onlyOwner {\r\n    require(msg.sender == owner);\r\n    _;\r\n  }\r\n\r\n  // the destroy function is modified with 'onlyOwner' access\r\n  // Code becomes more reusable\r\n  function destroy() public onlyOwner{\r\n    selfdestruct(owner);\r\n  }\r\n}\r\n",
  "sourcePath": "C:/Users/Pegasus/Solidity_Projects/CreateApp/contracts/RoughFaucet.sol",
  "compiler": {
    "name": "solc",
    "version": "0.8.0+commit.c7dfd78e.Emscripten.clang"
  },
  "schemaVersion": "3.3.4",
  "updatedAt": "2021-03-06T17:24:21.102Z",
  "devdoc": {
    "kind": "dev",
    "methods": {},
    "version": 1
  },
  "userdoc": {
    "kind": "user",
    "methods": {},
    "version": 1
  }
}