{
  "contractName": "mortal",
  "abi": [
    {
      "inputs": [],
      "name": "destroy",
      "outputs": [],
      "stateMutability": "nonpayable",
      "type": "function"
    }
  ],
  "bytecode": "0x608060405234801561001057600080fd5b50336000806101000a81548173ffffffffffffffffffffffffffffffffffffffff021916908373ffffffffffffffffffffffffffffffffffffffff160217905550610118806100606000396000f3fe6080604052348015600f57600080fd5b50600436106045576000357c01000000000000000000000000000000000000000000000000000000009004806383197ef014604a575b600080fd5b60506052565b005b60008054906101000a900473ffffffffffffffffffffffffffffffffffffffff1673ffffffffffffffffffffffffffffffffffffffff163373ffffffffffffffffffffffffffffffffffffffff161460a957600080fd5b60008054906101000a900473ffffffffffffffffffffffffffffffffffffffff1673ffffffffffffffffffffffffffffffffffffffff16fffea26469706673582212207b2f497b7fcbba6bdac0d6fb2f06d6cc30e1058b2939f5d5d57ebec9fea35f2164736f6c63430008000033",
  "immutableReferences": {},
  "source": "// SPDX-License-Identifier: GPL-3.0\r\n\r\npragma solidity >=0.7.0 <0.9.0;\r\n\r\n//Make an 'owned' parent with constructor + modifier\r\ncontract owned {\r\n  address payable owner;\r\n\r\n  constructor() {\r\n    owner = payable(msg.sender);\r\n  }\r\n\r\n  modifier onlyOwner {\r\n    require(payable(msg.sender) == owner);\r\n    _;\r\n  }\r\n}\r\n\r\n//Make a 'mortal' child with destructor\r\ncontract mortal is owned {\r\n  function destroy() public onlyOwner{\r\n    selfdestruct(owner);\r\n  }\r\n}\r\n\r\n//Use the 'mortal' as parent in Faucet for withdraw + receive function\r\ncontract Faucet is mortal {\r\n  address faucetAddress = address(this);\r\n  event Withdrawal (address indexed to, uint amount);\r\n  event Deposit (address indexed from, uint amount);\r\n\r\n  function withdraw(uint withdraw_amount) public{\r\n    require(withdraw_amount <= 0.01 ether);\r\n    //Optional error handling, requires more gas\r\n    require(faucetAddress.balance >= withdraw_amount,\r\n      \"Insufficient balance in faucet\");\r\n    payable(msg.sender).transfer(withdraw_amount);\r\n    emit Withdrawal(msg.sender, withdraw_amount);\r\n  }\r\n\r\n  receive() external payable{\r\n    emit Deposit(msg.sender, msg.value);\r\n  }\r\n}\r\n",
  "sourcePath": "C:/Users/Pegasus/Solidity_Projects/CreateApp/contracts/Faucet.sol",
  "compiler": {
    "name": "solc",
    "version": "0.8.0+commit.c7dfd78e.Emscripten.clang"
  },
  "schemaVersion": "3.3.4",
  "updatedAt": "2021-03-06T17:24:21.095Z",
  "devdoc": {
    "kind": "dev",
    "methods": {},
    "version": 1
  },
  "userdoc": {
    "kind": "user",
    "methods": {},
    "version": 1
  }
}